HEBV03J201203310005      105901067600                                          
HEH1130002700FM19391110EB11    HCPP                                            
HETK023A  0051700120111202780                                                  
HEE0001000000001                                                               