HEBV03J201203310005      105901067600                                          
HEE0001000000001                                                               
HEBV03J201203310005      105901067600                                          
HEH1130002700FM19391110EB12    HCPP                                            
HETA901A  0041750120111202780                                                  
HEE0001000000001                                                               
HEBV03J201203310005      105901067600                                          
HEH1130002700FM19391110EB13    HCPP                                            
HETQ020A  0000000120111202780                                                  
HEE0001000000001                                                               
HEBV03J201203310005      105901067600                                          
HEH1262186099  19550212EB14    HCPP                                            
HETP006A  0445750120111202780                                                  
HEE0001000000001                                                               
HEBV03J201203310005      105901067600                                          
HEH1262186099  19550212EB15    HCPP                                            
HETP004A  0031950120111202780                                                  
HEE0001000000001                                                               
HEBV03J201203310005      105901067600                                          
HEH9613023028WB19481118EB16    HCPP      110020080622                          
HETC003A  0061000120111202780                                                  
HEE0001000000001                                                               
HEBV03J201203310005      105901067600                                          
HEH9823490769TW19690310EB17    HCPP                                            
HETZ192A  0154950120111202780                                                  
HEE0001000000001                                                               
HEBV03J201203310005      105901067600                                          
HEH                    EB18    HCPP                                            
HETQ107A  0000000120121031780                                                  
HEE0001000000001                                                               
HEBV03J201203310005      000001067600                                          
HEH1130002700FM19391110EB19    HCPP      110020080622                          
HETC003A  0061000120111202780                                                  
HEE0001000000001                                                               
HEBV03J201203310005      000001067600                                          
HEH1130002700FM19391110EB110   HCPP                                            
HETZ192A  0154950120111202780                                                  
HEE0001000000001                                                               
HEBV03J201203310005      000001067600                                          
HEH1184110557  19830508EB111   HCPP                                            
HETK023A  0051700120111202780                                                  
HEE0001000000001                                                               
HEBV03J201203310005      000001067600                                          
HEH1130002700FM19391110EB112   HCPP                                            
HETA901A  0041750120111222780                                                  
HEE0001000000001                                                               
HEBV03J201203310005      000001067600                                          
HEH1184110557  19830508EB113   HCPP                                            
HETQ020A  0000000120111202780                                                  
HEE0001000000001                                                               
HEBV03J201203310005      000001067600                                          
HEH1184110557  19830508EB114   HCPP                                            
HETP006A  0445750120111202780                                                  
HEE0001000000001                                                               
HEBV03J201203310005      000001067600                                          
HEH1184110557  19830508EB115   HCPP                                            
HETP004A  0031950120111202780                                                  
HEE0001000000001                                                               
HEBV03J201203310005      000001067600                                          
HEH6264553261KK19680407EB116   HCPP                                            
HETK023A  0051700120111202780                                                  
HEE0001000000001                                                               
HEBV03J201203310005      000001067600                                          
HEH6076225942LT19190323EB117   HCPP                                            
HETA901A  0041750120111202780                                                  
HEE0001000000001                                                               
HEBV03J201203310005      000001067600                                          
HEH6077640206EC19201202EB118   HCPP                                            
HETQ020A  0000000120111202780                                                  
HEE0001000000001                                                               
HEBV03J201203310005      000001067600                                          
HEH                    EB119   HCPP                                            
HETQ110A  0000000120111031780                                                  
HEE0001000000001                                                               
HEBV03J201203310005      000001067600                                          
HEH                    EB120   HCPP                                            
HETQ116A  0000000120111031780                                                  
HEE0001000000001                                                               
HEBV03J201203310005      000001067600                                          
HEH                    EB121   HCPP                                            
HETQ555A  0025000120111202780                                                  
HEE0001000000001                                                               
HEBV03J201203310005      FAAB23814700                                          
HEH1397331172  19750625EB122   HCPP                                            
HETK023A  0051700120111202780                                                  
HEE0001000000001                                                               
HEBV03J201203310005      FAAB23814700                                          
HEH1046268239  19031103EB123   HCPP                                            
HETA901A  0041750120111202780                                                  
HEE0001000000001                                                               
HEBV03J201203310005      FAAB23814700                                          
HEH1397331172  19750625EB124   HCPP                                            
HETQ020A  0000000120111202780                                                  
HEE0001000000001                                                               
HEBV03J201203310005      FAAB23814700                                          
HEH1397331172  19750625EB125   HCPP                                            
HETP006A  0445750120111202780                                                  
HEE0001000000001                                                               
HEBV03J201203310005      FAAB23814700                                          
HEH1017843887MN19571024EB126   HCPP      110020080622                          
HETC003A  0061000120111202780                                                  
HEE0001000000001                                                               
HEBV03J201203310005      FAAB23814700                                          
HEH1017843887MN19571024EB127   HCPP                                            
HETZ192A  0154950120111202780                                                  
HEE0001000000001                                                               
HEBV03J201203310005      FAAB23814700                                          
HEH1017843887MN19571024EB128   HCPP                                            
HETP006A  0445750120111202780                                                  
HEE0001000000001                                                               
HEBV03J201203310005      B05223814700                                          
HEH1608068803EG19560131EB129   HCPP                                            
HETK023A  0051700120111202780                                                  
HEE0001000000001                                                               
HEBV03J201203310005      B05223814700                                          
HEH1608068803EG19560131EB130   HCPP                                            
HETA901A  0041750120111202780                                                  
HEE0001000000001                                                               
HEBV03J201203310005      B05223814700                                          
HEH1608068803EG19560131EB131   HCPP                                            
HETQ020A  0000000120111202780                                                  
HEE0001000000001                                                               
HEBV03J201203310005      FAAB23814700                                          
HEH3904170002JB19480914EB132   HCPP      110020080622                          
HETC003A  0061000120111202780                                                  
HEE0001000000001                                                               
HEBV03J201203310005      FAAB23814700                                          
HEH5133897628HE19360728EB133   HCPP                                            
HETZ192A  0154950120111202780                                                  
HEE0001000000001                                                               
HEBV03J201203310005      FAAB23814700                                          
HEH8184749847ET19330104EB134   HCPP                                            
HETK023A  0051700120111202780                                                  
HEE0001000000001                                                               
HEBV03J201203310005      FAAB23814700                                          
HEH6507864640GV20010308EB135   HCPP                                            
HETA901A  0041750120111202780                                                  
HEE0001000000001                                                               
HEBV03J201203310005      FAAB23814700                                          
HEH5864839526TA19301214EB136   HCPP                                            
HETQ020A  0000000120111202780                                                  
HEE0001000000001                                                               
HEBV03J201203310005      FAAB23814700                                          
HEH                    EB137   HCPP                                            
HETQ116A  0000000120111031780                                                  
HEE0001000000001                                                               
HEBV03J201203310005      FAAB23814700                                          
HEH                    EB138   HCPP                                            
HETQ557A  0025000120111202780                                                  
HEE0001000000001                                                               
HEBV03J201203310005      B05223814700                                          
HEH1046268239  19031103EB139   HCPP      110020080622                          
HETC003A  0061000120111202780                                                  
HEE0001000000001                                                               
HEBV03J201203310005      B05223814700                                          
HEH1046268239  19031103EB140   HCPP                                            
HETZ192A  0154950120111202780                                                  
HEE0001000000001                                                               
HEBV03J201203310005      B05223814700                                          
HEH1046268239  19031103EB141   HCPP                                            
HETK023A  0051700120111202780                                                  
HEE0001000000001                                                               
HEBV03J201203310005      B05223814700                                          
HEH1411033895  19740215EB142   HCPP                                            
HETP006A  0445750120111202780                                                  
HEE0001000000001                                                               
HEBV03J201203310005      B05223814700                                          
HEH1411033895  19740215EB143   HCPP                                            
HETP004A  0031950120111202780                                                  
HEE0001000000001                                                               
HEBV03J201203310005      B05223814700                                          
HEH1650249202PH19790717EB144   HCPP                                            
HETK023A  0051700120111202780                                                  
HEE0001000000001                                                               
HEBV03J201203310005      B05223814700                                          
HEH1608068803EG19560131EB145   HCPP                                            
HETA901A  0041750120111212780                                                  
HEE0001000000001                                                               
HEBV03J201203310005      B05223814700                                          
HEH1650249202PH19790717EB146   HCPP                                            
HETQ020A  0000000120111202780                                                  
HEE0001000000001                                                               
HEBV03J201203310005      B05223814700                                          
HEH1650249202PH19790717EB147   HCPP                                            
HETP004A  0031950120111202780                                                  
HEE0001000000001                                                               
HEBV03J201203310005      B05223814700                                          
HEH1017843887MN19571024EB148   HCPP      110020080522                          
HETC003A  0061000120110902780                                                  
HEE0001000000001                                                               
HEBV03J201203310005      B05223814700                                          
HEH1017843887MN19571024EB149   HCPP                                            
HETZ192A  0154950120110902780                                                  
HEE0001000000001                                                               
HEBV03J201203310005      B05223814700                                          
HEH4751935786HD19790518EB150   HCPP      110020080622                          
HETC003A  0061000120111202780                                                  
HEE0001000000001                                                               
HEBV03J201203310005      B05223814700                                          
HEH5895421849PC19350713EB151   HCPP                                            
HETZ192A  0154950120111202780                                                  
HEE0001000000001                                                               
HEBV03J201203310005      B05223814700                                          
HEH                    EB152   HCPP                                            
HETQ120A  0000000120110731780                                                  
HEE0001000000001                                                               
HEBV03J201203310005      B05223814700                                          
HEH                    EB153   HCPP                                            
HETQ555A  0025000120111202780                                                  
HEE0001000000001                                                               
HEBV03J201203310005      105923814700                                          
HEH1136709217  19530522EB154   HCPP                                            
HETK023A  0051700120111202780                                                  
HEE0001000000001                                                               
HEBV03J201203310005      105923814700                                          
HEH1046268239  19031103EB155   HCPP                                            
HETA901A  0041750120111202780                                                  
HEE0001000000001                                                               
HEBV03J201203310005      105923814700                                          
HEH1136709217  19530522EB156   HCPP                                            
HETQ020A  0000000120111202780                                                  
HEE0001000000001                                                               
HEBV03J201203310005      105923814700                                          
HEH1136709217  19530522EB157   HCPP                                            
HETP006A  0445750120111202780                                                  
HEE0001000000001                                                               
HEBV03J201203310005      105923814700                                          
HEH1397331172  19750625EB158   HCPP                                            
HETP004A  0031950120111202780                                                  
HEE0001000000001                                                               
HEBV03J201203310005      105923814700                                          
HEH1685144667NE19800915EB159   HCPP                                            
HETK023A  0051700120111202780                                                  
HEE0001000000001                                                               
HEBV03J201203310005      105923814700                                          
HEH1017843887MN19571024EB160   HCPP                                            
HETA901A  0041750120111202780                                                  
HEE0001000000001                                                               
HEBV03J201203310005      105923814700                                          
HEH1685144667NE19800915EB161   HCPP                                            
HETQ020A  0000000120111202780                                                  
HEE0001000000001                                                               
HEBV03J201203310005      105923814700                                          
HEH1685144667NE19800915EB162   HCPP                                            
HETP004A  0031950120111202780                                                  
HEE0001000000001                                                               
HEBV03J201203310005      105923814700                                          
HEH1608068803EG19560131EB163   HCPP      110020080622                          
HETC003A  0061000120111202780                                                  
HEE0001000000001                                                               
HEBV03J201203310005      105923814700                                          
HEH1608068803EG19560131EB164   HCPP                                            
HETZ192A  0154950120111202780                                                  
HEE0001000000001                                                               
HEBV03J201203310005      105923814700                                          
HEH4260848462MM19871025EB165   HCPP      110020080622                          
HETC003A  0061000120111202780                                                  
HEE0001000000001                                                               
HEBV03J201203310005      105923814700                                          
HEH5962110465YB19180311EB166   HCPP                                            
HETZ192A  0154950120111202780                                                  
HEE0001000000001                                                               
HEBV03J201203310005      105923814700                                          
HEH                    EB167   HCPP                                            
HETQ110A  0000000120080331780                                                  
HEE0001000000001                                                               
HEBV03J201203310005      105923814700                                          
HEH                    EB168   HCPP                                            
HETQ557A  0025000120111202780                                                  
HEE0001000000001                                                               
HEBV03J201203310005      000023814700                                          
HEH1046268239  19031103EB169   HCPP      110020080622                          
HETC003A  0061000120111220780                                                  
HEE0001000000001                                                               
HEBV03J201203310005      000023814700                                          
HEH1046268239  19031103EB170   HCPP                                            
HETZ192A  0154950120111220780                                                  
HEE0001000000001                                                               
HEBV03J201203310005      000023814700                                          
HEH1297838946RT19770207EB171   HCPP                                            
HETQ020A  0000000120111202780                                                  
HEE0001000000001                                                               
HEBV03J201203310005      000023814700                                          
HEH1297838946RT19770207EB172   HCPP                                            
HETP006A  0445750120111202780                                                  
HEE0001000000001                                                               
HEBV03J201203310005      000023814700                                          
HEH1017843887MN19571024EB173   HCPP      110020080422                          
HETC003A  0061000120110902780                                                  
HEE0001000000001                                                               
HEBV03J201203310005      000023814700                                          
HEH1017843887MN19571024EB174   HCPP                                            
HETZ192A  0154950120110902780                                                  
HEE0001000000001                                                               
HEBV03J201203310005      000023814700                                          
HEH1685144667NE19800915EB175   HCPP                                            
HETP006A  0445750120110902780                                                  
HEE0001000000001                                                               
HEBV03J201203310005      000023814700                                          
HEH1650643883TT19500320EB176   HCPP                                            
HETK023A  0051700120111202780                                                  
HEE0001000000001                                                               
HEBV03J201203310005      000023814700                                          
HEH1608068803EG19560131EB177   HCPP                                            
HETA901A  0041750120111220780                                                  
HEE0001000000001                                                               
HEBV03J201203310005      000023814700                                          
HEH1650643883TT19500320EB178   HCPP                                            
HETQ020A  0000000120111202780                                                  
HEE0001000000001                                                               
HEBV03J201203310005      000023814700                                          
HEH2926052024TN19780927EB179   HCPP                                            
HETK023A  0051700120111202780                                                  
HEE0001000000001                                                               
HEBV03J201203310005      000023814700                                          
HEH8182546526CW19881215EB180   HCPP                                            
HETA901A  0041750120111202780                                                  
HEE0001000000001                                                               
HEBV03J201203310005      000023814700                                          
HEH6300522304AP19640306EB181   HCPP                                            
HETQ020A  0000000120111202780                                                  
HEE0001000000001                                                               
HEBV03J201203310005      000023814700                                          
HEH                    EB182   HCPP                                            
HETQ120A  0000000120110931780                                                  
HEE0001000000001                                                               
HEBV03J201203310005      000023814700                                          
HEH                    EB183   HCPP                                            
HETQ557A  0025000120111202780                                                  
HEE0001000000001                                                               
HEBV03J201203310005      000001067600                                          
HEH1130002700FM19391110EB19-1  HCPP      110020080622                          
HETC003A  0061000120111202780                                                  
HEE0001000000001                                                               
HEBV03J201203310005      000001067600                                          
HEH1130002700FM19391110EB19-2  HCPP      110020080622                          
HETC003A  0061000120111202780                                                  
HEE0001000000001                                                               
HEBV03J201203310005      000001067600                                          
HEH1130002700FM19391110EB19-3  HCPP      110020080622                          
HETC003A  0061000120111202780                                                  
HEE0001000000001                                                               
HEBV03J201203310005      000001067600                                          
HEH1130002700FM19391110EB19-4  HCPP      110020080622                          
HETC003A  0061000120111202780                                                  
HEE0001000000001                                                               
HEBV03J201203310005      000001067600                                          
HEH1130002700FM19391110EB19-5  HCPP      110020080622                          
HETC003A  0061000120111202780                                                  
HEE0001000000001                                                               
HEBV03J201203310005      000001067600                                          
HEH1130002700FM19391110EB19-6  HCPP      110020080622                          
HETC003A  0061000120111202780                                                  
HEE0001000000001                                                               
HEBV03J201203310005      000001067600                                          
HEH1130002700FM19391110EB19-7  HCPP      110020080622                          
HETC003A  0061000120111202780                                                  
HEE0001000000001                                                               
HEBV03J201203310005      000001067600                                          
HEH1130002700FM19391110EB19-8  HCPP      110020080622                          
HETC003A  0061000120111202780                                                  
HEE0001000000001                                                               
HEBV03J201203310005      000001067600                                          
HEH1130002700FM19391110EB19-9  HCPP      110020080622                          
HETC003A  0061000120111202780                                                  
HEE0001000000001                                                               
HEBV03J201203310005      000001067600                                          
HEH1130002700FM19391110EB19-10 HCPP      110020080622                          
HETC003A  0061000120111202780                                                  
HEE0001000000001                                                               
HEBV03J201203310005      000001067600                                          
HEH1130002700FM19391110EB19-11 HCPP      110020080622                          
HETC003A  0061000120111202780                                                  
HEE0001000000001                                                               
HEBV03J201203310005      000001067600                                          
HEH1130002700FM19391110EB19-12 HCPP      110020080622                          
HETC003A  0061000120111202780                                                  
HEE0001000000001                                                               
HEBV03J201203310005      000001067600                                          
HEH1130002700FM19391110EB19-13 HCPP      110020080622                          
HETC003A  0061000120111202780                                                  
HEE0001000000001                                                               
HEBV03J201203310005      000001067600                                          
HEH1130002700FM19391110EB19-14 HCPP      110020080622                          
HETC003A  0061000120111202780                                                  
HEE0001000000001                                                               
HEBV03J201203310005      000001067600                                          
HEH1130002700FM19391110EB19-15 HCPP      110020080622                          
HETC003A  0061000120111202780                                                  
HEE0001000000001                                                               
HEBV03J201203310005      000001067600                                          
HEH1130002700FM19391110EB19-16 HCPP      110020080622                          
HETC003A  0061000120111202780                                                  
HEE0001000000001                                                               
HEBV03J201203310005      000001067600                                          
HEH1130002700FM19391110EB19-17 HCPP      110020080622                          
HETC003A  0061000120111202780                                                  
HEE0001000000001                                                               
HEBV03J201203310005      000001067600                                          
HEH1130002700FM19391110EB19-18 HCPP      110020080622                          
HETC003A  0061000120111202780                                                  
HEE0001000000001                                                               
HEBV03J201203310005      000001067600                                          
HEH1130002700FM19391110EB19-19 HCPP      110020080622                          
HETC003A  0061000120111202780                                                  
HEE0001000000001                                                               
HEBV03J201203310005      000001067600                                          
HEH1130002700FM19391110EB19-20 HCPP      110020080622                          
HETC003A  0061000120111202780                                                  
HEE0001000000001                                                               
HEBV03J201203310005      000001067600                                          
HEH1130002700FM19391110EB19-21 HCPP      110020080622                          
HETC003A  0061000120111202780                                                  
HEE0001000000001                                                               
HEBV03J201203310005      000001067600                                          
HEH1130002700FM19391110EB19-22 HCPP      110020080622                          
HETC003A  0061000120111202780                                                  
HEE0001000000001                                                               
HEBV03J201203310005      000001067600                                          
HEH1130002700FM19391110EB19-23 HCPP      110020080622                          
HETC003A  0061000120111202780                                                  
HEE0001000000001                                                               
HEBV03J201203310005      000001067600                                          
HEH1130002700FM19391110EB19-24 HCPP      110020080622                          
HETC003A  0061000120111202780                                                  
HEE0001000000001                                                               
HEBV03J201203310005      000001067600                                          
HEH1130002700FM19391110EB19-25 HCPP      110020080622                          
HETC003A  0061000120111202780                                                  
HEE0001000000001                                                               
HEBV03J201203310005      000001067600                                          
HEH1130002700FM19391110EB19-26 HCPP      110020080622                          
HETC003A  0061000120111202780                                                  
HEE0001000000001                                                               
HEBV03J201203310005      000001067600                                          
HEH1130002700FM19391110EB19-27 HCPP      110020080622                          
HETC003A  0061000120111202780                                                  
HEE0001000000001                                                               
HEBV03J201203310005      000001067600                                          
HEH1130002700FM19391110EB19-28 HCPP      110020080622                          
HETC003A  0061000120111202780                                                  
HEE0001000000001                                                               
HEBV03J201203310005      000001067600                                          
HEH1130002700FM19391110EB19-29 HCPP      110020080622                          
HETC003A  0061000120111202780                                                  
HEE0001000000001                                                               
HEBV03J201203310005      000001067600                                          
HEH1130002700FM19391110EB19-30 HCPP      110020080622                          
HETC003A  0061000120111202780                                                  
HEE0001000000001                                                               
HEBV03J201203310005      000001067600                                          
HEH1130002700FM19391110EB19-31 HCPP      110020080622                          
HETC003A  0061000120111202780                                                  
HEE0001000000001                                                               
HEBV03J201203310005      000001067600                                          
HEH1130002700FM19391110EB19-32 HCPP      110020080622                          
HETC003A  0061000120111202780                                                  
HEE0001000000001                                                               
HEBV03J201203310005      000001067600                                          
HEH1130002700FM19391110EB19-33 HCPP      110020080622                          
HETC003A  0061000120111202780                                                  
HEE0001000000001                                                               
HEBV03J201203310005      000001067600                                          
HEH1130002700FM19391110EB19-34 HCPP      110020080622                          
HETC003A  0061000120111202780                                                  
HEE0001000000001                                                               
HEBV03J201203310005      000001067600                                          
HEH1130002700FM19391110EB110-1 HCPP                                            
HETZ192A  0154950120111202780                                                  
HEE0001000000001                                                               
HEBV03J201203310005      000001067600                                          
HEH1130002700FM19391110EB110-2 HCPP                                            
HETZ192A  0154950120111202780                                                  
HEE0001000000001                                                               
HEBV03J201203310005      000001067600                                          
HEH1130002700FM19391110EB110-3 HCPP                                            
HETZ192A  0154950120111202780                                                  
HEE0001000000001                                                               
HEBV03J201203310005      000001067600                                          
HEH1130002700FM19391110EB110-4 HCPP                                            
HETZ192A  0154950120111202780                                                  
HEE0001000000001                                                               
HEBV03J201203310005      000001067600                                          
HEH1130002700FM19391110EB110-5 HCPP                                            
HETZ192A  0154950120111202780                                                  
HEE0001000000001                                                               
HEBV03J201203310005      000001067600                                          
HEH1130002700FM19391110EB110-6 HCPP                                            
HETZ192A  0154950120111202780                                                  
HEE0001000000001                                                               
HEBV03J201203310005      000001067600                                          
HEH1130002700FM19391110EB110-7 HCPP                                            
HETZ192A  0154950120111202780                                                  
HEE0001000000001                                                               
HEBV03J201203310005      000001067600                                          
HEH1130002700FM19391110EB110-8 HCPP                                            
HETZ192A  0154950120111202780                                                  
HEE0001000000001                                                               
HEBV03J201203310005      000001067600                                          
HEH1130002700FM19391110EB110-9 HCPP                                            
HETZ192A  0154950120111202780                                                  
HEE0001000000001                                                               
HEBV03J201203310005      000001067600                                          
HEH1130002700FM19391110EB111-1 HCPP                                            
HETK023A  0051700120111202780                                                  
HEE0001000000001                                                               
HEBV03J201203310005      000001067600                                          
HEH1130002700FM19391110EB111-2 HCPP                                            
HETK023A  0051700120111202780                                                  
HEE0001000000001                                                               
HEBV03J201203310005      000001067600                                          
HEH1130002700FM19391110EB111-3 HCPP                                            
HETK023A  0051700120111202780                                                  
HEE0001000000001                                                               
HEBV03J201203310005      000001067600                                          
HEH1130002700FM19391110EB112-1 HCPP                                            
HETA901A  0041750120111201780                                                  
HEE0001000000001                                                               
HEBV03J201203310005      000001067600                                          
HEH1130002700FM19391110EB112-2 HCPP                                            
HETA901A  0041750120111201780                                                  
HEE0001000000001                                                               
HEBV03J201203310005      000001067600                                          
HEH1130002700FM19391110EB112-3 HCPP                                            
HETA901A  0041750120111201780                                                  
HEE0001000000001                                                               
HEBV03J201203310005      000001067600                                          
HEH1130002700FM19391110EB112-4 HCPP                                            
HETA901A  0041750120111201780                                                  
HEE0001000000001                                                               
HEBV03J201203310005      000001067600                                          
HEH1130002700FM19391110EB112-5 HCPP                                            
HETA901A  0041750120111201780                                                  
HEE0001000000001                                                               
HEBV03J201203310005      000001067600                                          
HEH1130002700FM19391110EB112-6 HCPP                                            
HETA901A  0041750120111201780                                                  
HEE0001000000001                                                               
HEBV03J201203310005      000001067600                                          
HEH1130002700FM19391110EB112-7 HCPP                                            
HETA901A  0041750120111201780                                                  
HEE0001000000001                                                               
HEBV03J201203310005      000001067600                                          
HEH1130002700FM19391110EB112-8 HCPP                                            
HETA901A  0041750120111201780                                                  
HEE0001000000001                                                               
HEBV03J201203310005      000001067600                                          
HEH1130002700FM19391110EB112-9 HCPP                                            
HETA901A  0041750120111201780                                                  
HEE0001000000001                                                               
HEBV03J201203310005      000001067600                                          
HEH1130002700FM19391110EB113-1 HCPP                                            
HETQ020A  0000000120111202780                                                  
HEE0001000000001                                                               
HEBV03J201203310005      000001067600                                          
HEH1130002700FM19391110EB113-2 HCPP                                            
HETQ020A  0000000120111202780                                                  
HEE0001000000001                                                               
HEBV03J201203310005      000001067600                                          
HEH1130002700FM19391110EB113-3 HCPP                                            
HETQ020A  0000000120111202780                                                  
HEE0001000000001                                                               
HEBV03J201203310005      000001067600                                          
HEH1130002700FM19391110EB113-4 HCPP                                            
HETQ020A  0000000120111202780                                                  
HEE0001000000001                                                               
HEBV03J201203310005      000001067600                                          
HEH1130002700FM19391110EB113-5 HCPP                                            
HETQ020A  0000000120111202780                                                  
HEE0001000000001                                                               
HEBV03J201203310005      000001067600                                          
HEH1130002700FM19391110EB113-6 HCPP                                            
HETQ020A  0000000120111202780                                                  
HEE0001000000001                                                               
HEBV03J201203310005      000001067600                                          
HEH1130002700FM19391110EB113-7 HCPP                                            
HETQ020A  0000000120111202780                                                  
HEE0001000000001                                                               
HEBV03J201203310005      000001067600                                          
HEH1130002700FM19391110EB113-8 HCPP                                            
HETQ020A  0000000120111202780                                                  
HEE0001000000001                                                               
HEBV03J201203310005      000001067600                                          
HEH1130002700FM19391110EB113-9 HCPP                                            
HETQ020A  0000000120111202780                                                  
HEE0001000000001                                                               
HEBV03J201203310005      000001067600                                          
HEH1262186099  19550212EB114-1 HCPP                                            
HETP006A  0445750120111202780                                                  
HEE0001000000001                                                               
HEBV03J201203310005      000001067600                                          
HEH1262186099  19550212EB114-2 HCPP                                            
HETP006A  0445750120111202780                                                  
HEE0001000000001                                                               
HEBV03J201203310005      000001067600                                          
HEH1262186099  19550212EB114-3 HCPP                                            
HETP006A  0445750120111202780                                                  
HEE0001000000001                                                               
HEBV03J201203310005      000001067600                                          
HEH1262186099  19550212EB115-1 HCPP                                            
HETP004A  0031950120111202780                                                  
HEE0001000000001                                                               
HEBV03J201203310005      000001067600                                          
HEH1262186099  19550212EB115-2 HCPP                                            
HETP004A  0031950120111202780                                                  
HEE0001000000001                                                               
HEBV03J201203310005      000001067600                                          
HEH1262186099  19550212EB115-3 HCPP                                            
HETP004A  0031950120111202780                                                  
HEE0001000000001                                                               
HEBV03J201203310005      000001067600                                          
HEH1262186099  19550212EB115-4 HCPP                                            
HETP004A  0031950120111202780                                                  
HEE0001000000001                                                               
HEBV03J201203310005      000023814700                                          
HEH1046268239  19031103EB169-1 HCPP      110020080622                          
HETC003A  0061000120111202780                                                  
HEE0001000000001                                                               
HEBV03J201203310005      000023814700                                          
HEH1046268239  19031103EB169-2 HCPP      110020080622                          
HETC003A  0061000120111202780                                                  
HEE0001000000001                                                               
HEBV03J201203310005      000023814700                                          
HEH1046268239  19031103EB169-3 HCPP      110020080622                          
HETC003A  0061000120111202780                                                  
HEE0001000000001                                                               
HEBV03J201203310005      000023814700                                          
HEH1046268239  19031103EB169-4 HCPP      110020080622                          
HETC003A  0061000120111202780                                                  
HEE0001000000001                                                               
HEBV03J201203310005      000023814700                                          
HEH1046268239  19031103EB169-5 HCPP      110020080622                          
HETC003A  0061000120111202780                                                  
HEE0001000000001                                                               
HEBV03J201203310005      000023814700                                          
HEH1046268239  19031103EB169-6 HCPP      110020080622                          
HETC003A  0061000120111202780                                                  
HEE0001000000001                                                               
HEBV03J201203310005      000023814700                                          
HEH1046268239  19031103EB169-7 HCPP      110020080622                          
HETC003A  0061000120111202780                                                  
HEE0001000000001                                                               
HEBV03J201203310005      000023814700                                          
HEH1046268239  19031103EB169-8 HCPP      110020080622                          
HETC003A  0061000120111202780                                                  
HEE0001000000001                                                               
HEBV03J201203310005      000023814700                                          
HEH1046268239  19031103EB169-9 HCPP      110020080622                          
HETC003A  0061000120111202780                                                  
HEE0001000000001                                                               
HEBV03J201203310005      000023814700                                          
HEH1046268239  19031103EB169-10HCPP      110020080622                          
HETC003A  0061000120111202780                                                  
HEE0001000000001                                                               
HEBV03J201203310005      000023814700                                          
HEH1046268239  19031103EB169-11HCPP      110020080622                          
HETC003A  0061000120111202780                                                  
HEE0001000000001                                                               
HEBV03J201203310005      000023814700                                          
HEH1046268239  19031103EB169-12HCPP      110020080622                          
HETC003A  0061000120111202780                                                  
HEE0001000000001                                                               
HEBV03J201203310005      000023814700                                          
HEH1046268239  19031103EB169-13HCPP      110020080622                          
HETC003A  0061000120111202780                                                  
HEE0001000000001                                                               
HEBV03J201203310005      000023814700                                          
HEH1046268239  19031103EB169-14HCPP      110020080622                          
HETC003A  0061000120111202780                                                  
HEE0001000000001                                                               
HEBV03J201203310005      000023814700                                          
HEH1046268239  19031103EB169-15HCPP      110020080622                          
HETC003A  0061000120111202780                                                  
HEE0001000000001                                                               
HEBV03J201203310005      000023814700                                          
HEH1046268239  19031103EB169-16HCPP      110020080622                          
HETC003A  0061000120111202780                                                  
HEE0001000000001                                                               
HEBV03J201203310005      000023814700                                          
HEH1046268239  19031103EB169-17HCPP      110020080622                          
HETC003A  0061000120111202780                                                  
HEE0001000000001                                                               
HEBV03J201203310005      000023814700                                          
HEH1046268239  19031103EB169-18HCPP      110020080622                          
HETC003A  0061000120111202780                                                  
HEE0001000000001                                                               
HEBV03J201203310005      000023814700                                          
HEH1046268239  19031103EB169-19HCPP      110020080622                          
HETC003A  0061000120111202780                                                  
HEE0001000000001                                                               
HEBV03J201203310005      000023814700                                          
HEH1046268239  19031103EB169-20HCPP      110020080622                          
HETC003A  0061000120111202780                                                  
HEE0001000000001                                                               
HEBV03J201203310005      000023814700                                          
HEH1046268239  19031103EB169-21HCPP      110020080622                          
HETC003A  0061000120111202780                                                  
HEE0001000000001                                                               
HEBV03J201203310005      000023814700                                          
HEH1046268239  19031103EB169-22HCPP      110020080622                          
HETC003A  0061000120111202780                                                  
HEE0001000000001                                                               
HEBV03J201203310005      000023814700                                          
HEH1046268239  19031103EB169-23HCPP      110020080622                          
HETC003A  0061000120111202780                                                  
HEE0001000000001                                                               
HEBV03J201203310005      000023814700                                          
HEH1046268239  19031103EB169-24HCPP      110020080622                          
HETC003A  0061000120111202780                                                  
HEE0001000000001                                                               
HEBV03J201203310005      000023814700                                          
HEH1046268239  19031103EB169-25HCPP      110020080622                          
HETC003A  0061000120111202780                                                  
HEE0001000000001                                                               
HEBV03J201203310005      000023814700                                          
HEH1046268239  19031103EB169-26HCPP      110020080622                          
HETC003A  0061000120111202780                                                  
HEE0001000000001                                                               
HEBV03J201203310005      000023814700                                          
HEH1046268239  19031103EB169-27HCPP      110020080622                          
HETC003A  0061000120111202780                                                  
HEE0001000000001                                                               
HEBV03J201203310005      000023814700                                          
HEH1046268239  19031103EB169-28HCPP      110020080622                          
HETC003A  0061000120111202780                                                  
HEE0001000000001                                                               
HEBV03J201203310005      000023814700                                          
HEH1046268239  19031103EB169-29HCPP      110020080622                          
HETC003A  0061000120111202780                                                  
HEE0001000000001                                                               
HEBV03J201203310005      000023814700                                          
HEH1046268239  19031103EB169-30HCPP      110020080622                          
HETC003A  0061000120111202780                                                  
HEE0001000000001                                                               
HEBV03J201203310005      000023814700                                          
HEH1046268239  19031103EB169-31HCPP      110020080622                          
HETC003A  0061000120111202780                                                  
HEE0001000000001                                                               
HEBV03J201203310005      000023814700                                          
HEH1046268239  19031103EB169-32HCPP      110020080622                          
HETC003A  0061000120111202780                                                  
HEE0001000000001                                                               
HEBV03J201203310005      000023814700                                          
HEH1046268239  19031103EB169-33HCPP      110020080622                          
HETC003A  0061000120111202780                                                  
HEE0001000000001                                                               
HEBV03J201203310005      000023814700                                          
HEH1046268239  19031103EB169-34HCPP      110020080622                          
HETC003A  0061000120111202780                                                  
HEE0001000000001                                                               
HEBV03J201203310005      000023814700                                          
HEH1046268239  19031103EB170-1 HCPP                                            
HETZ192A  0154950120111202780                                                  
HEE0001000000001                                                               
HEBV03J201203310005      000023814700                                          
HEH1046268239  19031103EB170-2 HCPP                                            
HETZ192A  0154950120111202780                                                  
HEE0001000000001                                                               
HEBV03J201203310005      000023814700                                          
HEH1046268239  19031103EB170-3 HCPP                                            
HETZ192A  0154950120111202780                                                  
HEE0001000000001                                                               
HEBV03J201203310005      000023814700                                          
HEH1046268239  19031103EB170-4 HCPP                                            
HETZ192A  0154950120111202780                                                  
HEE0001000000001                                                               
HEBV03J201203310005      000023814700                                          
HEH1046268239  19031103EB170-5 HCPP                                            
HETZ192A  0154950120111202780                                                  
HEE0001000000001                                                               
HEBV03J201203310005      000023814700                                          
HEH1046268239  19031103EB170-6 HCPP                                            
HETZ192A  0154950120111202780                                                  
HEE0001000000001                                                               
HEBV03J201203310005      000023814700                                          
HEH1046268239  19031103EB170-7 HCPP                                            
HETZ192A  0154950120111202780                                                  
HEE0001000000001                                                               
HEBV03J201203310005      000023814700                                          
HEH1046268239  19031103EB170-8 HCPP                                            
HETZ192A  0154950120111202780                                                  
HEE0001000000001                                                               
HEBV03J201203310005      000023814700                                          
HEH1046268239  19031103EB170-9 HCPP                                            
HETZ192A  0154950120111202780                                                  
HEE0001000000001                                                               
HEBV03J201203310005      000023814700                                          
HEH1046268239  19031103EB171-1 HCPP                                            
HETQ020A  0000000120111202780                                                  
HEE0001000000001                                                               
HEBV03J201203310005      000023814700                                          
HEH1046268239  19031103EB171-2 HCPP                                            
HETQ020A  0000000120111202780                                                  
HEE0001000000001                                                               
HEBV03J201203310005      000023814700                                          
HEH1046268239  19031103EB171-3 HCPP                                            
HETQ020A  0000000120111202780                                                  
HEE0001000000001                                                               
HEBV03J201203310005      000023814700                                          
HEH1046268239  19031103EB171-4 HCPP                                            
HETQ020A  0000000120111202780                                                  
HEE0001000000001                                                               
HEBV03J201203310005      000023814700                                          
HEH1046268239  19031103EB171-5 HCPP                                            
HETQ020A  0000000120111202780                                                  
HEE0001000000001                                                               
HEBV03J201203310005      000023814700                                          
HEH1046268239  19031103EB171-6 HCPP                                            
HETQ020A  0000000120111202780                                                  
HEE0001000000001                                                               
HEBV03J201203310005      000023814700                                          
HEH1046268239  19031103EB171-7 HCPP                                            
HETQ020A  0000000120111202780                                                  
HEE0001000000001                                                               
HEBV03J201203310005      000023814700                                          
HEH1046268239  19031103EB171-8 HCPP                                            
HETQ020A  0000000120111202780                                                  
HEE0001000000001                                                               
HEBV03J201203310005      000023814700                                          
HEH1046268239  19031103EB171-9 HCPP                                            
HETQ020A  0000000120111202780                                                  
HEE0001000000001                                                               
HEBV03J201203310005      000023814700                                          
HEH1136709217  19530522EB172-1 HCPP                                            
HETP006A  0445750120111202780                                                  
HEE0001000000001                                                               
HEBV03J201203310005      000023814700                                          
HEH1136709217  19530522EB172-2 HCPP                                            
HETP006A  0445750120111202780                                                  
HEE0001000000001                                                               
HEBV03J201203310005      000023814700                                          
HEH1136709217  19530522EB172-3 HCPP                                            
HETP006A  0445750120111202780                                                  
HEE0001000000001                                                               
HEBV03J201203310005      BHAA21204300                                          
HEH1004698872VJ20040101EC11    HCPP      110020080623                          
HETC003A  0061000120110903780                                                  
HEE0001000000001                                                               
HEBV03J201203310005      BHAA21204300                                          
HEH1004698872VJ20040101EC12    HCPP                                            
HETZ192A  0154950120110903780                                                  
HEE0001000000001                                                               
HEBV03J201203310005      BHAA21204300                                          
HEH1004698872VJ20040101EC13    HCPP                                            
HETK023A  0051700120110903780                                                  
HEE0001000000001                                                               
HEBV03J201203310005      BHAA21204300                                          
HEH1004698872VJ20040101EC14    HCPP                                            
HETA901A  0041750120110903780                                                  
HEE0001000000001                                                               
HEBV03J201203310005      BHAA21204300                                          
HEH1004698872VJ20040101EC15    HCPP                                            
HETQ020A  0000000120110903780                                                  
HEE0001000000001                                                               
HEBV03J201203310005      675021204300                                          
HEH1302819428AT19520527EC16    HCPP                                            
HETP006A  0445750120110903780                                                  
HEE0001000000001                                                               
HEBV03J201203310005      BHAA21204300                                          
HEH1302819428AT19520527EC17    HCPP                                            
HETP004A  0031950120110903780                                                  
HEE0001000000001                                                               
HEBV03J201203310005      BHAA21204300                                          
HEH6438211366KY19631108EC18    HCPP      110020080623                          
HETC003A  0061000120110903780                                                  
HEE0001000000001                                                               
HEBV03J201203310005      BHAA21204300                                          
HEH5774886062XE19720917EC19    HCPP                                            
HETZ192A  0154950120110903780                                                  
HEE0001000000001                                                               
HEBV03J201203310005      BHAA21204300                                          
HEH9787365346GT19800224EC110   HCPP                                            
HETK023A  0051700120110903780                                                  
HEE0001000000001                                                               
HEBV03J201203310005      BHAA21204300                                          
HEH3531834467KB19301013EC111   HCPP                                            
HETA901A  0041750120110903780                                                  
HEE0001000000001                                                               
HEBV03J201203310005      BHAA21204300                                          
HEH8157649461KR19880126EC112   HCPP                                            
HETQ020A  0000000120110903780                                                  
HEE0001000000001                                                               
HEBV03J201203310005      BHAA21204300                                          
HEH                    EC113   HCPP                                            
HETQ120A  0000000120110831780                                                  
HEE0001000000001                                                               
HEBV03J201203310005      BHAA21204300                                          
HEH                    EC114   HCPP                                            
HETQ103A  0000000120110831780                                                  
HEE0001000000001                                                               
HEBV03J201203310005      BHAA21204300                                          
HEH                    EC115   HCPP                                            
HETQ557A  0025000120110903780                                                  
HEE0001000000001                                                               
HEBV03J201203310005      675021204300                                          
HEH1004698872VJ20040101EC116   HCPP                                            
HETZ192A  0154950120080603780                                                  
HEE0001000000001                                                               
HEBV03J201203310005      675021204300                                          
HEH1004698872VJ20040101EC117   HCPP                                            
HETA901A  0041750120111003780                                                  
HEE0001000000001                                                               
HEBV03J201203310005      675021204300                                          
HEH1331745248YV19820606EC118   HCPP                                            
HETP006A  0445750120111024780                                                  
HEE0001000000001                                                               
HEBV03J201203310005      675021204300                                          
HEH9878735324JY19900712EC119   HCPP      110020080623                          
HETC003A  0061000120110903780                                                  
HEE0001000000001                                                               
HEBV03J201203310005      675021204300                                          
HEH3935713507FV19250516EC120   HCPP                                            
HETK023A  0051700120110903780                                                  
HEE0001000000001                                                               
HEBV03J201203310005      675021204300                                          
HEH4903439380AW20050522EC121   HCPP                                            
HETQ020A  0000000120110903780                                                  
HEE0001000000001                                                               
HEBV03J201203310005      675021204300                                          
HEH                    EC122   HCPP                                            
HETQ555A  0025000120110903780                                                  
HEE0001000000001                                                               
HEBV03J201203310005      000021204300                                          
HEH1004698872VJ20040101EC123   HCPP      110020080423                          
HETC003A  0061000120111003780                                                  
HEE0001000000001                                                               
HEBV03J201203310005      000021204300                                          
HEH1331745248YV19820606EC124   HCPP                                            
HETK023A  0051700120111003780                                                  
HEE0001000000001                                                               
HEBV03J201203310005      000021204300                                          
HEH1331745248YV19820606EC125   HCPP                                            
HETQ020A  0000000120111003780                                                  
HEE0001000000001                                                               
HEBV03J201203310005      000021204300                                          
HEH1331745248YV19820606EC126   HCPP                                            
HETP004A  0031950120111023780                                                  
HEE0001000000001                                                               
HEBV03J201203310005      000021204300                                          
HEH3479709747FC20000222EC127   HCPP                                            
HETZ192A  0154950120110903780                                                  
HEE0001000000001                                                               
HEBV03J201203310005      000021204300                                          
HEH2245965922KA19260309EC128   HCPP                                            
HETA901A  0041750120110903780                                                  
HEE0001000000001                                                               
HEBV03J201203310005      000021204300                                          
HEH                    EC129   HCPP                                            
HETQ107A  0000000120110831780                                                  
HEE0001000000001                                                               
HEBV03J201203310005      B00021223300                                          
HEH1006647430HH20040101EC146   HCPP      110020080523                          
HETC003A  0061000120111001780                                                  
HEE0001000000001                                                               
HEBV03J201203310005      B00021223300                                          
HEH1741458721WW19801227EC147   HCPP                                            
HETK023A  0051700120111001780                                                  
HEE0001000000001                                                               
HEBV03J201203310005      B00021223300                                          
HEH1741458721WW19801227EC148   HCPP                                            
HETQ020A  0000000120111001780                                                  
HEE0001000000001                                                               
HEBV03J201203310005      B00021223300                                          
HEH1741458721WW19801227EC149   HCPP                                            
HETP004A  0031950120111003780                                                  
HEE0001000000001                                                               
HEBV03J201203310005      B00021223300                                          
HEH1049436007EA20030216EC150   HCPP                                            
HETZ192A  0154950120110903780                                                  
HEE0001000000001                                                               
HEBV03J201203310005      B00021223300                                          
HEH1049436007EA20030216EC151   HCPP                                            
HETA901A  0041750120110903780                                                  
HEE0001000000001                                                               
HEBV03J201203310005      B00021223300                                          
HEH1097727869DT19640307EC152   HCPP                                            
HETP006A  0445750120110903780                                                  
HEE0001000000001                                                               
HEBV03J201203310005      B00021223300                                          
HEH1247106188KX19801007EC153   HCPP      110020080423                          
HETC003A  0061000120111001780                                                  
HEE0001000000001                                                               
HEBV03J201203310005      B00021223300                                          
HEH1247106188KX19801007EC154   HCPP                                            
HETQ020A  0000000120111001780                                                  
HEE0001000000001                                                               
HEBV03J201203310005      B00021223300                                          
HEH5524879862FY19850914EC155   HCPP                                            
HETZ192A  0154950120110903780                                                  
HEE0001000000001                                                               
HEBV03J201203310005      B00021223300                                          
HEH4991850167XB19931120EC156   HCPP                                            
HETA901A  0041750120110903780                                                  
HEE0001000000001                                                               
HEBV03J201203310005      B00021223300                                          
HEH                    EC157   HCPP                                            
HETQ116A  0000000120110831780                                                  
HEE0001000000001                                                               
HEBV03J201203310005      B00021223300                                          
HEH                    EC158   HCPP                                            
HETQ555A  0025000120110903780                                                  
HEE0001000000001                                                               
HEBV03J201203310005      BEAQ21223300                                          
HEH1006647430HH20040101EC159   HCPP                                            
HETZ192A  0154950120111001780                                                  
HEE0001000000001                                                               
HEBV03J201203310005      BEAQ21223300                                          
HEH1006647430HH20040101EC160   HCPP                                            
HETA901A  0041750120111001780                                                  
HEE0001000000001                                                               
HEBV03J201203310005      BEAQ21223300                                          
HEH1747699344WJ19781105EC161   HCPP                                            
HETP006A  0445750120111003780                                                  
HEE0001000000001                                                               
HEBV03J201203310005      BEAQ21223300                                          
HEH1247106188KX19801007EC162   HCPP      110020080623                          
HETC003A  0061000120111023780                                                  
HEE0001000000001                                                               
HEBV03J201203310005      BEAQ21223300                                          
HEH1203778640LD19710522EC163   HCPP                                            
HETK023A  0051700120111023780                                                  
HEE0001000000001                                                               
HEBV03J201203310005      BEAQ21223300                                          
HEH1203778640LD19710522EC164   HCPP                                            
HETQ020A  0000000120111023780                                                  
HEE0001000000001                                                               
HEBV03J201203310005      BEAQ21223300                                          
HEH1203778640LD19710522EC165   HCPP                                            
HETP004A  0031950120111023780                                                  
HEE0001000000001                                                               
HEBV03J201203310005      BEAQ21223300                                          
HEH1049436007EA20030216EC166   HCPP                                            
HETZ192A  0154950120111013780                                                  
HEE0001000000001                                                               
HEBV03J201203310005      BEAQ21223300                                          
HEH1049436007EA20030216EC167   HCPP                                            
HETA901A  0041750120111013780                                                  
HEE0001000000001                                                               
HEBV03J201203310005      BEAQ21223300                                          
HEH8192083163YK19680901EC168   HCPP      110020080623                          
HETC003A  0061000120110903780                                                  
HEE0001000000001                                                               
HEBV03J201203310005      BEAQ21223300                                          
HEH3936919566XC19250913EC169   HCPP                                            
HETK023A  0051700120110903780                                                  
HEE0001000000001                                                               
HEBV03J201203310005      BEAQ21223300                                          
HEH8874077723CJ19281123EC170   HCPP                                            
HETQ020A  0000000120110903780                                                  
HEE0001000000001                                                               
HEBV03J201203310005      BEAQ21223300                                          
HEH                    EC171   HCPP                                            
HETQ555A  0025000120110903780                                                  
HEE0001000000001                                                               
HEBV03J201203310005      278021223300                                          
HEH1006647430HH20040101EC172   HCPP      110020080323                          
HETC003A  0061000120111001780                                                  
HEE0001000000001                                                               
HEBV03J201203310005      278021223300                                          
HEH1006647430HH20040101EC173   HCPP                                            
HETZ192A  0154950120111001780                                                  
HEE0001000000001                                                               
HEBV03J201203310005      278021223300                                          
HEH1006647430HH20040101EC174   HCPP                                            
HETA901A  0041750120111001780                                                  
HEE0001000000001                                                               
HEBV03J201203310005      278021223300                                          
HEH2175128988XL19760616EC175   HCPP                                            
HETP006A  0445750120110803780                                                  
HEE0001000000001                                                               
HEBV03J201203310005      278021223300                                          
HEH2175128988XL19760616EC176   HCPP                                            
HETP004A  0031950120110803780                                                  
HEE0001000000001                                                               
HEBV03J201203310005      278021223300                                          
HEH1247106188KX19801007EC177   HCPP                                            
HETZ192A  0154950120111023780                                                  
HEE0001000000001                                                               
HEBV03J201203310005      278021223300                                          
HEH1247106188KX19801007EC178   HCPP                                            
HETA901A  0041750120111023780                                                  
HEE0001000000001                                                               
HEBV03J201203310005      278021223300                                          
HEH1249127703YL19801007EC179   HCPP                                            
HETP006A  0445750120111023780                                                  
HEE0001000000001                                                               
HEBV03J201203310005      278021223300                                          
HEH1049436007EA20030216EC180   HCPP      110020080423                          
HETC003A  0061000120111013780                                                  
HEE0001000000001                                                               
HEBV03J201203310005      278021223300                                          
HEH1097727869DT19640307EC181   HCPP                                            
HETK023A  0051700120111013780                                                  
HEE0001000000001                                                               
HEBV03J201203310005      278021223300                                          
HEH1097727869DT19640307EC182   HCPP                                            
HETQ020A  0000000120111013780                                                  
HEE0001000000001                                                               
HEBV03J201203310005      278021223300                                          
HEH9964588348JM19240912EC183   HCPP                                            
HETZ192A  0154950120110903780                                                  
HEE0001000000001                                                               
HEBV03J201203310005      278021223300                                          
HEH2807811985DY19730204EC184   HCPP                                            
HETA901A  0041750120110903780                                                  
HEE0001000000001                                                               
HEBV03J201203310005      278021223300                                          
HEH                    EC185   HCPP                                            
HETQ103A  0000000120110831780                                                  
HEE0001000000001                                                               
HEBV03J201203310005      278021223300                                          
HEH                    EC186   HCPP                                            
HETQ556A  0025000120110903780                                                  
HEE0001000000001                                                               
HEBV03J201203310005      000021223300                                          
HEH2450208380BG19931009EC187   HCPP                                            
HETK023A  0051700120110803780                                                  
HEE0001000000001                                                               
HEBV03J201203310005      000021223300                                          
HEH2181395662KT19731226EC188   HCPP                                            
HETA901A  0041750120110803780                                                  
HEE0001000000001                                                               
HEBV03J201203310005      000021223300                                          
HEH2181395662KT19731226EC188A  HCPP                                            
HETA901A  0041750120111012780                                                  
HEE0001000000001                                                               
HEBV03J201203310005      000021223300                                          
HEH2181395662KT19731226EC189   HCPP                                            
HETP006A  0445750120110922780                                                  
HEE0001000000001                                                               
HEBV03J201203310005      000021223300                                          
HEH2181395662KT19731226EC190   HCPP                                            
HETP004A  0031950120110921780                                                  
HEE0001000000001                                                               
HEBV03J201203310005      000021223300                                          
HEH1247106188KX19801007EC191   HCPP      110020080303                          
HETC003A  0061000120110813780                                                  
HEE0001000000001                                                               
HEBV03J201203310005      000021223300                                          
HEH1417539960EC19781008EC192   HCPP                                            
HETK023A  0051700120110813780                                                  
HEE0001000000001                                                               
HEBV03J201203310005      000021223300                                          
HEH1417539960EC19781008EC193   HCPP                                            
HETQ020A  0000000120110813780                                                  
HEE0001000000001                                                               
HEBV03J201203310005      000021223300                                          
HEH1417539960EC19781008EC194   HCPP                                            
HETP004A  0031950120110813780                                                  
HEE0001000000001                                                               
HEBV03J201203310005      000021223300                                          
HEH1049436007EA20030216EC195   HCPP                                            
HETZ192A  0154950120111013780                                                  
HEE0001000000001                                                               
HEBV03J201203310005      000021223300                                          
HEH1049436007EA20030216EC196   HCPP                                            
HETA901A  0041750120111013780                                                  
HEE0001000000001                                                               
HEBV03J201203310005      000021223300                                          
HEH5673864608TY19700213EC197   HCPP      110020080623                          
HETC003A  0061000120110903780                                                  
HEE0001000000001                                                               
HEBV03J201203310005      000021223300                                          
HEH9160264868DJ19450319EC198   HCPP                                            
HETK023A  0051700120110903780                                                  
HEE0001000000001                                                               
HEBV03J201203310005      000021223300                                          
HEH6729719440WN19061229EC199   HCPP                                            
HETQ020A  0000000120110903780                                                  
HEE0001000000001                                                               
HEBV03J201203310005      000021223300                                          
HEH                    EC1100  HCPP                                            
HETQ557A  0025000120110903780                                                  
HEE0001000000001                                                               
HEBV03J201203310005      BHAA21204300                                          
HEH1004698872VJ20040101EC11    HCPP      110020080623                          
HETC003A  0061000120111203780                                                  
HEE0001000000001                                                               
HEBV03J201203310005      BHAA21204300                                          
HEH1004698872VJ20040101EC12    HCPP                                            
HETZ192A  0154950120111203780                                                  
HEE0001000000001                                                               
HEBV03J201203310005      BHAA21204300                                          
HEH1004698872VJ20040101EC13    HCPP                                            
HETK023A  0051700120111203780                                                  
HEE0001000000001                                                               
HEBV03J201203310005      BHAA21204300                                          
HEH1004698872VJ20040101EC14    HCPP                                            
HETA901A  0041750120111203780                                                  
HEE0001000000001                                                               
HEBV03J201203310005      BHAA21204300                                          
HEH1004698872VJ20040101EC15    HCPP                                            
HETQ020A  0000000120111203780                                                  
HEE0001000000001                                                               
HEBV03J201203310005      675021204300                                          
HEH1302819428AT19520527EC16    HCPP                                            
HETP006A  0445750120111203780                                                  
HEE0001000000001                                                               
HEBV03J201203310005      BHAA21204300                                          
HEH1302819428AT19520527EC17    HCPP                                            
HETP004A  0031950120111203780                                                  
HEE0001000000001                                                               
HEBV03J201203310005      BHAA21204300                                          
HEH6438211366KY19631108EC18    HCPP      110020080623                          
HETC003A  0061000120111203780                                                  
HEE0001000000001                                                               
HEBV03J201203310005      BHAA21204300                                          
HEH5774886062XE19720917EC19    HCPP                                            
HETZ192A  0154950120111203780                                                  
HEE0001000000001                                                               
HEBV03J201203310005      BHAA21204300                                          
HEH9787365346GT19800224EC110   HCPP                                            
HETK023A  0051700120111203780                                                  
HEE0001000000001                                                               
HEBV03J201203310005      BHAA21204300                                          
HEH3531834467KB19301013EC111   HCPP                                            
HETA901A  0041750120111203780                                                  
HEE0001000000001                                                               
HEBV03J201203310005      BHAA21204300                                          
HEH8157649461KR19880126EC112   HCPP                                            
HETQ020A  0000000120111203780                                                  
HEE0001000000001                                                               
HEBV03J201203310005      BHAA21204300                                          
HEH                    EC113   HCPP                                            
HETQ120A  0000000120110831780                                                  
HEE0001000000001                                                               
HEBV03J201203310005      BHAA21204300                                          
HEH                    EC114   HCPP                                            
HETQ103A  0000000120110831780                                                  
HEE0001000000001                                                               
HEBV03J201203310005      BHAA21204300                                          
HEH                    EC115   HCPP                                            
HETQ557A  0025000120111203780                                                  
HEE0001000000001                                                               
HEBV03J201203310005      675021204300                                          
HEH1004698872VJ20040101EC116   HCPP                                            
HETZ192A  0154950120110903780                                                  
HEE0001000000001                                                               
HEBV03J201203310005      675021204300                                          
HEH1004698872VJ20040101EC117   HCPP                                            
HETA901A  0041750120110903780                                                  
HEE0001000000001                                                               
HEBV03J201203310005      675021204300                                          
HEH1331745248YV19820606EC118   HCPP                                            
HETP006A  0445750120110924780                                                  
HEE0001000000001                                                               
HEBV03J201203310005      675021204300                                          
HEH9878735324JY19900712EC119   HCPP      110020080623                          
HETC003A  0061000120111203780                                                  
HEE0001000000001                                                               
