HEBV03N202406240001      000003020000                                          
HEH9876543225AB1985061500000001HCPP                       3821                 
HETA007A  0034700120240624799                                                  
HEE0001000000001                                                               
